:02000000F22FDD
:100B20000030831203138C1A013008008312031360
:100B30001816981C9C2D9D2D9F2D181218168C1E72
:100B4000A22DA32D9F2D1A080800F0008316031371
:100B5000981683120C1EAD2DAE2DA92D700899008C
:100B600083160313981208008316031318158312B3
:100B700003132608AA002708AB002808AC002908A0
:100B8000AD0004300310AA0DAB0DAC0DAD0DFF3E52
:100B9000031DC22D2D08F3002C08F2002B08F100D4
:100BA0002A08F0002608AE002708AF002808B00089
:100BB0002908B10004300310AE0DAF0DB00DB10D1A
:100BC000FF3E031DDB2D0030B2000930B3003D3085
:100BD000B4000030B5002E08B2022F08031C2F0FFE
:100BE000F22DF32DB3023008031C300FF82DF92D30
:100BF000B4023108031C310FFE2DFF2DB50235085C
:100C0000F7003408F6003308F5003208F40019261E
:100C10007108FA007008F900790883160313990027
:100C200018128312031398178316031386140615DC
:100C3000080083120313A101F31F1F2E202E2D2E57
:100C4000F009F109F209F309F00A0319F10A03198D
:100C5000F20A0319F30AA101A10AF71F302E312E5F
:100C6000402EF409F509F609F709F40A0319F50A03
:100C70000319F60A0319F70A0130FF007F08A106DD
:100C80000030A5000030A4000030A3000030A20016
:100C9000730872047104700403194F2E502E9D2E98
:100CA000A001A00A602E0130F8000310F00DF10D34
:100CB000F20DF30DF80B552E0130FF007F08A00751
:100CC000F31F632E642E532E0130F8000310A20D83
:100CD000A30DA40DA50DF80B662E73087702031D56
:100CE0007B2E72087602031D7B2E71087502031D90
:100CF0007B2E70087402031C7E2E7F2E8E2E7008B1
:100D0000F4027108031C710FF5027208031C720FC4
:100D1000F6027308031C730FF7022214013003104C
:100D2000F30CF20CF10CF00CFF3E031D8F2E013082
:100D3000A002031D9C2E9D2E642E21080319A12EB6
:100D4000A22EAD2EA209A309A409A509A20A03197E
:100D5000A30A0319A40A0319A50A2508F300240805
:100D6000F2002308F1002208F00008008B170B178F
:100D7000831603138C160C16061006168616061715
:100D80008617003083120313A9000030A800253015
:100D9000A7008030A600B4250F308316031385000A
:100DA0000730831203139F00850106149025003A33
:100DB0000319DB2EDC2ED62E962583120313C300D7
:100DC0004308B60004300310B60CFF3E031DE32EAB
:100DD0000C303606031DED2EEE2ED62E4318F12EC6
:100DE000F52E831203130514F82E83120313051036
:100DF0004308B60001300310B60CFF3E031DFB2E66
:100E00003618032F072F8312031385140A2F83121A
:100E1000031385104308B60002300310B60CFF3EE2
:100E2000031D0D2F3618152F192F831203130515C7
:100E30001C2F8312031305114308B600033003105F
:100E4000B60CFF3E031D1F2F3618272F2B2F8312A2
:100E5000031385152E2F8312031385114308C20037
:100E60000310061A0314003003180130B600B7014E
:100E700040083605B80041083705B900380839047C
:100E80000319432F442F472F0510C001C101031040
:100E9000861A0314003003180130B600B7013E086B
:100EA0003605B8003F083705B9003808390403197A
:100EB0005A2F5B2F5E2F8510BE01BF010310061B4A
:100EC0000314003003180130B600B7013C083605A2
:100ED000B8003D083705B900380839040319712FE7
:100EE000722F752F0511BC01BD010310861B031461
:100EF000003003180130B600B7013A083605B800D3
:100F00003B083705B900380839040319882F892FA1
:100F10008C2F8511C001C101061A8F2F902FA42F8D
:100F20000518932F942F9B2F05140130C00000301B
:100F3000C1000610E32F400841040319A02FA12F80
:100F4000A22F992F0614E32F861AA72FA82FB92FA7
:100F50008518AB2FAC2FB22F85140130BE000030A6
:100F6000BF00992F3E083F040319B72FB82FA22FB7
:100F7000992F061BBC2FBD2FCE2F0519C02FC12FB7
:100F8000C72F05150130BC000030BD00992F3C086B
:100F90003D040319CC2FCD2FA22F992F861BD12FC3
:100FA000D22FE32F8519D52FD62FDC2F85150130B1
:100FB000BA000030BB00992F3A083B040319E12F17
:100FC000E22FA22F992F0030851908300519043E11
:100FD0008518023E0518013EC03EC2004208A52504
:100FE000D62E002883120313BA01BB01BC01BD0138
:100FF000BE01BF01C001C101C201C3018301B62E00
:02400E00383F39
:00000001FF
